{
  "contractName": "FloatFlowerTest",
  "abi": [
    {
      "inputs": [],
      "payable": false,
      "stateMutability": "nonpayable",
      "type": "constructor",
      "signature": "constructor"
    },
    {
      "anonymous": false,
      "inputs": [
        {
          "indexed": true,
          "name": "from",
          "type": "address"
        },
        {
          "indexed": true,
          "name": "to",
          "type": "address"
        },
        {
          "indexed": false,
          "name": "value",
          "type": "uint256"
        }
      ],
      "name": "Transfer",
      "type": "event",
      "signature": "0xddf252ad1be2c89b69c2b068fc378daa952ba7f163c4a11628f55a4df523b3ef"
    },
    {
      "anonymous": false,
      "inputs": [
        {
          "indexed": true,
          "name": "owner",
          "type": "address"
        },
        {
          "indexed": true,
          "name": "spender",
          "type": "address"
        },
        {
          "indexed": false,
          "name": "value",
          "type": "uint256"
        }
      ],
      "name": "Approval",
      "type": "event",
      "signature": "0x8c5be1e5ebec7d5bd14f71427d1e84f3dd0314c0f7b2291e5b200ac8c7c3b925"
    },
    {
      "anonymous": false,
      "inputs": [
        {
          "indexed": true,
          "name": "miner",
          "type": "address"
        },
        {
          "indexed": false,
          "name": "value",
          "type": "uint256"
        }
      ],
      "name": "MinerReward",
      "type": "event",
      "signature": "0x55dfd7ee529a9d09ecd69505158a1b88e3e9ffb3b48fef36dfe9c093e2180ada"
    },
    {
      "constant": true,
      "inputs": [],
      "name": "name",
      "outputs": [
        {
          "name": "",
          "type": "string"
        }
      ],
      "payable": false,
      "stateMutability": "view",
      "type": "function",
      "signature": "0x06fdde03"
    },
    {
      "constant": true,
      "inputs": [],
      "name": "symbol",
      "outputs": [
        {
          "name": "",
          "type": "string"
        }
      ],
      "payable": false,
      "stateMutability": "view",
      "type": "function",
      "signature": "0x95d89b41"
    },
    {
      "constant": true,
      "inputs": [],
      "name": "decimals",
      "outputs": [
        {
          "name": "",
          "type": "uint8"
        }
      ],
      "payable": false,
      "stateMutability": "view",
      "type": "function",
      "signature": "0x313ce567"
    },
    {
      "constant": true,
      "inputs": [],
      "name": "totalSupply",
      "outputs": [
        {
          "name": "",
          "type": "uint256"
        }
      ],
      "payable": false,
      "stateMutability": "view",
      "type": "function",
      "signature": "0x18160ddd"
    },
    {
      "constant": true,
      "inputs": [
        {
          "name": "owner",
          "type": "address"
        }
      ],
      "name": "balanceOf",
      "outputs": [
        {
          "name": "",
          "type": "uint256"
        }
      ],
      "payable": false,
      "stateMutability": "view",
      "type": "function",
      "signature": "0x70a08231"
    },
    {
      "constant": false,
      "inputs": [
        {
          "name": "to",
          "type": "address"
        },
        {
          "name": "value",
          "type": "uint256"
        }
      ],
      "name": "transfer",
      "outputs": [
        {
          "name": "",
          "type": "bool"
        }
      ],
      "payable": false,
      "stateMutability": "nonpayable",
      "type": "function",
      "signature": "0xa9059cbb"
    },
    {
      "constant": false,
      "inputs": [
        {
          "name": "spender",
          "type": "address"
        },
        {
          "name": "value",
          "type": "uint256"
        }
      ],
      "name": "approve",
      "outputs": [
        {
          "name": "",
          "type": "bool"
        }
      ],
      "payable": false,
      "stateMutability": "nonpayable",
      "type": "function",
      "signature": "0x095ea7b3"
    },
    {
      "constant": true,
      "inputs": [
        {
          "name": "owner",
          "type": "address"
        },
        {
          "name": "spender",
          "type": "address"
        }
      ],
      "name": "allowance",
      "outputs": [
        {
          "name": "",
          "type": "uint256"
        }
      ],
      "payable": false,
      "stateMutability": "view",
      "type": "function",
      "signature": "0xdd62ed3e"
    },
    {
      "constant": false,
      "inputs": [
        {
          "name": "from",
          "type": "address"
        },
        {
          "name": "to",
          "type": "address"
        },
        {
          "name": "value",
          "type": "uint256"
        }
      ],
      "name": "transferFrom",
      "outputs": [
        {
          "name": "",
          "type": "bool"
        }
      ],
      "payable": false,
      "stateMutability": "nonpayable",
      "type": "function",
      "signature": "0x23b872dd"
    },
    {
      "constant": false,
      "inputs": [
        {
          "name": "value",
          "type": "uint256"
        }
      ],
      "name": "burn",
      "outputs": [
        {
          "name": "",
          "type": "bool"
        }
      ],
      "payable": false,
      "stateMutability": "nonpayable",
      "type": "function",
      "signature": "0x42966c68"
    },
    {
      "constant": false,
      "inputs": [
        {
          "name": "to",
          "type": "address"
        },
        {
          "name": "value",
          "type": "uint256"
        }
      ],
      "name": "mint",
      "outputs": [
        {
          "name": "",
          "type": "bool"
        }
      ],
      "payable": false,
      "stateMutability": "nonpayable",
      "type": "function",
      "signature": "0x40c10f19"
    },
    {
      "constant": false,
      "inputs": [],
      "name": "pauseFFT",
      "outputs": [],
      "payable": false,
      "stateMutability": "nonpayable",
      "type": "function",
      "signature": "0x94421150"
    },
    {
      "constant": false,
      "inputs": [],
      "name": "activateFFT",
      "outputs": [],
      "payable": false,
      "stateMutability": "nonpayable",
      "type": "function",
      "signature": "0x964f8897"
    }
  ],
  "bytecode": "0x60806040523480156200001157600080fd5b506040805190810160405280600f81526020017f466c6f6174466c6f776572546573740000000000000000000000000000000000815250600090805190602001906200005f9291906200019e565b506040805190810160405280600381526020017f464654000000000000000000000000000000000000000000000000000000000081525060019080519060200190620000ad9291906200019e565b506012600260006101000a81548160ff021916908360ff160217905550629896806003819055506000600460006101000a81548160ff02191690831515021790555033600460016101000a81548173ffffffffffffffffffffffffffffffffffffffff021916908373ffffffffffffffffffffffffffffffffffffffff16021790555060035460056000600460019054906101000a900473ffffffffffffffffffffffffffffffffffffffff1673ffffffffffffffffffffffffffffffffffffffff1673ffffffffffffffffffffffffffffffffffffffff168152602001908152602001600020819055506200024d565b828054600181600116156101000203166002900490600052602060002090601f016020900481019282601f10620001e157805160ff191683800117855562000212565b8280016001018555821562000212579182015b8281111562000211578251825591602001919060010190620001f4565b5b50905062000221919062000225565b5090565b6200024a91905b80821115620002465760008160009055506001016200022c565b5090565b90565b61106c806200025d6000396000f3fe6080604052600436106100c5576000357c0100000000000000000000000000000000000000000000000000000000900463ffffffff16806306fdde03146100ca578063095ea7b31461015a57806318160ddd146101cd57806323b872dd146101f8578063313ce5671461028b57806340c10f19146102bc57806342966c681461032f57806370a082311461038257806394421150146103e757806395d89b41146103fe578063964f88971461048e578063a9059cbb146104a5578063dd62ed3e14610518575b600080fd5b3480156100d657600080fd5b506100df61059d565b6040518080602001828103825283818151815260200191508051906020019080838360005b8381101561011f578082015181840152602081019050610104565b50505050905090810190601f16801561014c5780820380516001836020036101000a031916815260200191505b509250505060405180910390f35b34801561016657600080fd5b506101b36004803603604081101561017d57600080fd5b81019080803573ffffffffffffffffffffffffffffffffffffffff1690602001909291908035906020019092919050505061063f565b604051808215151515815260200191505060405180910390f35b3480156101d957600080fd5b506101e2610789565b6040518082815260200191505060405180910390f35b34801561020457600080fd5b506102716004803603606081101561021b57600080fd5b81019080803573ffffffffffffffffffffffffffffffffffffffff169060200190929190803573ffffffffffffffffffffffffffffffffffffffff16906020019092919080359060200190929190505050610793565b604051808215151515815260200191505060405180910390f35b34801561029757600080fd5b506102a06108e6565b604051808260ff1660ff16815260200191505060405180910390f35b3480156102c857600080fd5b50610315600480360360408110156102df57600080fd5b81019080803573ffffffffffffffffffffffffffffffffffffffff169060200190929190803590602001909291905050506108fd565b604051808215151515815260200191505060405180910390f35b34801561033b57600080fd5b506103686004803603602081101561035257600080fd5b81019080803590602001909291905050506109c2565b604051808215151515815260200191505060405180910390f35b34801561038e57600080fd5b506103d1600480360360208110156103a557600080fd5b81019080803573ffffffffffffffffffffffffffffffffffffffff169060200190929190505050610a94565b6040518082815260200191505060405180910390f35b3480156103f357600080fd5b506103fc610add565b005b34801561040a57600080fd5b50610413610b56565b6040518080602001828103825283818151815260200191508051906020019080838360005b83811015610453578082015181840152602081019050610438565b50505050905090810190601f1680156104805780820380516001836020036101000a031916815260200191505b509250505060405180910390f35b34801561049a57600080fd5b506104a3610bf8565b005b3480156104b157600080fd5b506104fe600480360360408110156104c857600080fd5b81019080803573ffffffffffffffffffffffffffffffffffffffff16906020019092919080359060200190929190505050610c71565b604051808215151515815260200191505060405180910390f35b34801561052457600080fd5b506105876004803603604081101561053b57600080fd5b81019080803573ffffffffffffffffffffffffffffffffffffffff169060200190929190803573ffffffffffffffffffffffffffffffffffffffff169060200190929190505050610cae565b6040518082815260200191505060405180910390f35b606060008054600181600116156101000203166002900480601f0160208091040260200160405190810160405280929190818152602001828054600181600116156101000203166002900480156106355780601f1061060a57610100808354040283529160200191610635565b820191906000526020600020905b81548152906001019060200180831161061857829003601f168201915b5050505050905090565b6000600460009054906101000a900460ff1615151561065d57600080fd5b600073ffffffffffffffffffffffffffffffffffffffff168373ffffffffffffffffffffffffffffffffffffffff161415151561069957600080fd5b81600660003373ffffffffffffffffffffffffffffffffffffffff1673ffffffffffffffffffffffffffffffffffffffff16815260200190815260200160002060008573ffffffffffffffffffffffffffffffffffffffff1673ffffffffffffffffffffffffffffffffffffffff168152602001908152602001600020819055508273ffffffffffffffffffffffffffffffffffffffff163373ffffffffffffffffffffffffffffffffffffffff167f8c5be1e5ebec7d5bd14f71427d1e84f3dd0314c0f7b2291e5b200ac8c7c3b925846040518082815260200191505060405180910390a36001905092915050565b6000600354905090565b6000600460009054906101000a900460ff161515156107b157600080fd5b81600660008673ffffffffffffffffffffffffffffffffffffffff1673ffffffffffffffffffffffffffffffffffffffff16815260200190815260200160002060003373ffffffffffffffffffffffffffffffffffffffff1673ffffffffffffffffffffffffffffffffffffffff168152602001908152602001600020541015151561083c57600080fd5b610847848484610d35565b81600660008673ffffffffffffffffffffffffffffffffffffffff1673ffffffffffffffffffffffffffffffffffffffff16815260200190815260200160002060003373ffffffffffffffffffffffffffffffffffffffff1673ffffffffffffffffffffffffffffffffffffffff168152602001908152602001600020600082825403925050819055506108db600a610ec3565b600190509392505050565b6000600260009054906101000a900460ff16905090565b6000600460019054906101000a900473ffffffffffffffffffffffffffffffffffffffff1673ffffffffffffffffffffffffffffffffffffffff163373ffffffffffffffffffffffffffffffffffffffff1614151561095b57600080fd5b81600560008573ffffffffffffffffffffffffffffffffffffffff1673ffffffffffffffffffffffffffffffffffffffff16815260200190815260200160002060008282540192505081905550816003600082825401925050819055506001905092915050565b6000600460009054906101000a900460ff161515156109e057600080fd5b81600560003373ffffffffffffffffffffffffffffffffffffffff1673ffffffffffffffffffffffffffffffffffffffff1681526020019081526020016000205410151515610a2e57600080fd5b81600560003373ffffffffffffffffffffffffffffffffffffffff1673ffffffffffffffffffffffffffffffffffffffff168152602001908152602001600020600082825403925050819055508160036000828254039250508190555060019050919050565b6000600560008373ffffffffffffffffffffffffffffffffffffffff1673ffffffffffffffffffffffffffffffffffffffff168152602001908152602001600020549050919050565b600460019054906101000a900473ffffffffffffffffffffffffffffffffffffffff1673ffffffffffffffffffffffffffffffffffffffff163373ffffffffffffffffffffffffffffffffffffffff16141515610b3957600080fd5b6001600460006101000a81548160ff021916908315150217905550565b606060018054600181600116156101000203166002900480601f016020809104026020016040519081016040528092919081815260200182805460018160011615610100020316600290048015610bee5780601f10610bc357610100808354040283529160200191610bee565b820191906000526020600020905b815481529060010190602001808311610bd157829003601f168201915b5050505050905090565b600460019054906101000a900473ffffffffffffffffffffffffffffffffffffffff1673ffffffffffffffffffffffffffffffffffffffff163373ffffffffffffffffffffffffffffffffffffffff16141515610c5457600080fd5b6000600460006101000a81548160ff021916908315150217905550565b6000600460009054906101000a900460ff16151515610c8f57600080fd5b610c9a338484610d35565b610ca4600a610ec3565b6001905092915050565b6000600660008473ffffffffffffffffffffffffffffffffffffffff1673ffffffffffffffffffffffffffffffffffffffff16815260200190815260200160002060008373ffffffffffffffffffffffffffffffffffffffff1673ffffffffffffffffffffffffffffffffffffffff16815260200190815260200160002054905092915050565b80600560008573ffffffffffffffffffffffffffffffffffffffff1673ffffffffffffffffffffffffffffffffffffffff1681526020019081526020016000205410151515610d8357600080fd5b600073ffffffffffffffffffffffffffffffffffffffff168273ffffffffffffffffffffffffffffffffffffffff1614151515610dbf57600080fd5b80600560008573ffffffffffffffffffffffffffffffffffffffff1673ffffffffffffffffffffffffffffffffffffffff1681526020019081526020016000206000828254039250508190555080600560008473ffffffffffffffffffffffffffffffffffffffff1673ffffffffffffffffffffffffffffffffffffffff168152602001908152602001600020600082825401925050819055508173ffffffffffffffffffffffffffffffffffffffff168373ffffffffffffffffffffffffffffffffffffffff167fddf252ad1be2c89b69c2b068fc378daa952ba7f163c4a11628f55a4df523b3ef836040518082815260200191505060405180910390a3505050565b8060056000600460019054906101000a900473ffffffffffffffffffffffffffffffffffffffff1673ffffffffffffffffffffffffffffffffffffffff1673ffffffffffffffffffffffffffffffffffffffff1681526020019081526020016000205410151515610f3357600080fd5b8060056000600460019054906101000a900473ffffffffffffffffffffffffffffffffffffffff1673ffffffffffffffffffffffffffffffffffffffff1673ffffffffffffffffffffffffffffffffffffffff1681526020019081526020016000206000828254039250508190555080600560004173ffffffffffffffffffffffffffffffffffffffff1673ffffffffffffffffffffffffffffffffffffffff168152602001908152602001600020600082825401925050819055504173ffffffffffffffffffffffffffffffffffffffff167f55dfd7ee529a9d09ecd69505158a1b88e3e9ffb3b48fef36dfe9c093e2180ada826040518082815260200191505060405180910390a25056fea165627a7a7230582078a9639d16783d59205a7c40cf7d6dd18802ad22c2dce4688bd672f00b537ba80029",
  "source": "pragma solidity ^0.5.0;\n\ncontract FloatFlowerTest {\n\tstring private _name;\n\tstring private _symbol;\n\tuint8 private _decimals;\n\tuint256 private _totalSupply;\n\tbool private _paused;\n\taddress private _master;\n\tmapping (address => uint256) private _balances;\n\tmapping (address => mapping(address => uint256)) private _allowed;\n\n\tconstructor() public {\n\t\t_name = \"FloatFlowerTest\";\n\t\t_symbol = \"FFT\";\n\t\t_decimals = 18;\n\t\t_totalSupply = 10000000;\n\t\t_paused = false;\n\t\t_master = msg.sender;\n\t\t_balances[_master] = _totalSupply;\n\t}\n\n\tevent Transfer(address indexed from, address indexed to, uint256 value);\n\tevent Approval(address indexed owner, address indexed spender, uint256 value);\n\tevent MinerReward(address indexed miner, uint256 value);\n\n\tmodifier whenNotPaused() {\n\t\trequire(!_paused);\n\t\t_;\n\t}\n\tmodifier isMaster() {\n\t\trequire(msg.sender == _master);\n\t\t_;\n\t}\n\n\tfunction name() public view returns (string memory) {\n\t\treturn _name;\n\t}\n\n\tfunction symbol() public view returns (string memory) {\n\t\treturn _symbol;\n\t}\n\n\tfunction decimals() public view returns (uint8) {\n\t\treturn _decimals;\n\t}\n\n\tfunction totalSupply() public view returns (uint256) {\n\t\treturn _totalSupply;\n\t}\n\n\tfunction balanceOf(address owner) public view returns (uint256) {\n\t\treturn _balances[owner];\n\t}\n\n\tfunction transfer(address to, uint256 value) public whenNotPaused returns (bool) {\n\t\t_transfer(msg.sender,to,value);\n\t\t_reward(10);\n\t\treturn true;\n\t}\n\n\tfunction approve(address spender, uint256 value) public whenNotPaused returns (bool) {\n\t\trequire(spender != address(0));\n\t\t_allowed[msg.sender][spender] = value;\n\t\temit Approval(msg.sender,spender,value);\n\t\treturn true;\n\t}\n\n\tfunction allowance(address owner, address spender) public view returns (uint256) {\n\t\treturn _allowed[owner][spender];\n\t}\n\n\tfunction transferFrom(address from, address to, uint256 value) public whenNotPaused returns (bool) {\n\t\trequire(_allowed[from][msg.sender] >= value);\n\t\t_transfer(from,to,value);\n\t\t_allowed[from][msg.sender] -= value;\n\t\t_reward(10);\n\t\treturn true;\n\t}\n\n\tfunction burn(uint256 value) public whenNotPaused returns (bool) {\n\t\trequire(_balances[msg.sender] >= value);\n\t\t_balances[msg.sender] -= value;\n\t\t_totalSupply -= value;\n\t\treturn true;\n\t}\n\n\tfunction mint(address to, uint256 value) public isMaster returns (bool) {\n\t\t_balances[to] += value;\n\t\t_totalSupply += value;\n\t\treturn true;\n\t}\n\n\tfunction pauseFFT() public isMaster {\n\t\t_paused = true;\n\t}\n\n\tfunction activateFFT() public isMaster {\n\t\t_paused = false;\n\t}\n\n\tfunction _transfer(address from,address to,uint256 value) private {\n\t\trequire(_balances[from] >= value);\n\t\trequire(to != address(0));\n\t\t_balances[from] -= value;\n\t\t_balances[to] += value;\n\t\temit Transfer(from,to,value);\n\t}\n\n\tfunction _reward(uint256 value) private {\n\t\trequire(_balances[_master] >= value);\n\t\t_balances[_master] -= value;\n\t\t_balances[block.coinbase] += value;\n\t\temit MinerReward(block.coinbase,value);\n\t}\n}",
  "sourcePath": "/home/benny/smartContract/contracts/FloatFlowerTest.sol",
  "compiler": {
    "name": "solc",
    "version": "0.5.0+commit.1d4f565a.Emscripten.clang"
  },
  "schemaVersion": "3.0.0",
  "updatedAt": "2019-01-04T03:05:30.606Z",
  "devdoc": {
    "methods": {}
  },
  "userdoc": {
    "methods": {}
  }
}